{
  "contractName": "Registration",
  "abi": [
    {
      "inputs": [],
      "stateMutability": "nonpayable",
      "type": "constructor"
    },
    {
      "anonymous": false,
      "inputs": [
        {
          "indexed": false,
          "internalType": "address",
          "name": "actor",
          "type": "address"
        },
        {
          "indexed": false,
          "internalType": "string",
          "name": "url",
          "type": "string"
        }
      ],
      "name": "Registration",
      "type": "event"
    },
    {
      "inputs": [
        {
          "internalType": "string",
          "name": "url",
          "type": "string"
        }
      ],
      "name": "register",
      "outputs": [],
      "stateMutability": "nonpayable",
      "type": "function"
    },
    {
      "inputs": [
        {
          "internalType": "address",
          "name": "actor",
          "type": "address"
        }
      ],
      "name": "isRegistered",
      "outputs": [
        {
          "internalType": "bool",
          "name": "",
          "type": "bool"
        }
      ],
      "stateMutability": "view",
      "type": "function"
    }
  ],
  "bytecode": "0x608060405234801561001057600080fd5b50610584806100206000396000f3fe608060405234801561001057600080fd5b50600436106100365760003560e01c8063c3c5a5471461003b578063f2c298be14610062575b600080fd5b61004e610049366004610334565b610077565b604051901515815260200160405180910390f35b6100756100703660046103a0565b61014c565b005b73ffffffffffffffffffffffffffffffffffffffff8116600090815260208190526040812080548291906100aa9061046f565b80601f01602080910402602001604051908101604052809291908181526020018280546100d69061046f565b80156101235780601f106100f857610100808354040283529160200191610123565b820191906000526020600020905b81548152906001019060200180831161010657829003601f168201915b5050505050905080516000141561013d5750600092915050565b50600192915050565b50919050565b33806101b9576040517f08c379a000000000000000000000000000000000000000000000000000000000815260206004820152601e60248201527f4163746f7220616464726573732063616e206e6f7420626520656d707479000060448201526064015b60405180910390fd5b6101c281610077565b15610229576040517f08c379a000000000000000000000000000000000000000000000000000000000815260206004820152601860248201527f4163746f7220616c72656164792072656769737465726564000000000000000060448201526064016101b0565b73ffffffffffffffffffffffffffffffffffffffff8116600090815260208181526040909120835161025d9285019061029b565b507f0d8d636375a5c89a44d886dc1bd7257c82dbf9d475396c77cdbf443158ecf4e8818360405161028f9291906104bd565b60405180910390a15050565b8280546102a79061046f565b90600052602060002090601f0160209004810192826102c9576000855561030f565b82601f106102e257805160ff191683800117855561030f565b8280016001018555821561030f579182015b8281111561030f5782518255916020019190600101906102f4565b5061031b92915061031f565b5090565b5b8082111561031b5760008155600101610320565b60006020828403121561034657600080fd5b813573ffffffffffffffffffffffffffffffffffffffff8116811461036a57600080fd5b9392505050565b7f4e487b7100000000000000000000000000000000000000000000000000000000600052604160045260246000fd5b6000602082840312156103b257600080fd5b813567ffffffffffffffff808211156103ca57600080fd5b818401915084601f8301126103de57600080fd5b8135818111156103f0576103f0610371565b604051601f82017fffffffffffffffffffffffffffffffffffffffffffffffffffffffffffffffe0908116603f0116810190838211818310171561043657610436610371565b8160405282815287602084870101111561044f57600080fd5b826020860160208301376000928101602001929092525095945050505050565b600181811c9082168061048357607f821691505b60208210811415610146577f4e487b7100000000000000000000000000000000000000000000000000000000600052602260045260246000fd5b73ffffffffffffffffffffffffffffffffffffffff8316815260006020604081840152835180604085015260005b81811015610507578581018301518582016060015282016104eb565b81811115610519576000606083870101525b50601f017fffffffffffffffffffffffffffffffffffffffffffffffffffffffffffffffe0169290920160600194935050505056fea26469706673582212204cffb33433934d4287e32bd8e20b56051da2562bd0cf8e0bca1a02cdf11e58df64736f6c634300080b0033",
  "immutableReferences": {},
  "source": "// SPDX-License-Identifier: MIT\npragma solidity ^0.8.0;\n\nimport \"./IRegistration.sol\";\n\ncontract Registration is IRegistration {\n  //Registration Actor Role\n  enum Role { Farmer, Carrier, Dealer }\n\n  //Actor information mapping\n  mapping(address => string) actors;\n\n  constructor() {}\n\n  function register(string memory url) public override {\n    address actor = msg.sender;\n    require(actor != address(0), \"Actor address can not be empty\");\n    require(!isRegistered(actor), \"Actor already registered\");\n\n    actors[actor] = url;\n\n    emit Registration(actor, url);\n  }\n\n  function isRegistered(address actor) public view override returns(bool) {\n    bytes memory act = bytes(actors[actor]);\n    if(act.length == 0) {\n      return false;\n    } else {\n      return true;\n    }\n  }\n\n}",
  "sourcePath": "C:\\data\\source\\marcofabbian\\blockchain_training_exercise\\blockchain-developer-bootcamp-final-project\\contracts\\Registration.sol",
  "compiler": {
    "name": "solc",
    "version": "0.8.11+commit.d7f03943.Emscripten.clang"
  },
  "schemaVersion": "3.4.3",
  "updatedAt": "2022-01-23T15:55:43.103Z",
  "devdoc": {
    "kind": "dev",
    "methods": {},
    "version": 1
  },
  "userdoc": {
    "kind": "user",
    "methods": {},
    "version": 1
  }
}